{
  "_format": "hh-sol-artifact-1",
  "contractName": "tokenERC20",
  "sourceName": "contracts/tokenERC20.sol",
  "abi": [
    {
      "inputs": [],
      "stateMutability": "nonpayable",
      "type": "constructor"
    },
    {
      "anonymous": false,
      "inputs": [
        {
          "indexed": true,
          "internalType": "address",
          "name": "owner",
          "type": "address"
        },
        {
          "indexed": true,
          "internalType": "address",
          "name": "spender",
          "type": "address"
        },
        {
          "indexed": false,
          "internalType": "uint256",
          "name": "value",
          "type": "uint256"
        }
      ],
      "name": "Approval",
      "type": "event"
    },
    {
      "anonymous": false,
      "inputs": [
        {
          "indexed": true,
          "internalType": "address",
          "name": "previousOwner",
          "type": "address"
        },
        {
          "indexed": true,
          "internalType": "address",
          "name": "newOwner",
          "type": "address"
        }
      ],
      "name": "OwnershipTransferred",
      "type": "event"
    },
    {
      "anonymous": false,
      "inputs": [
        {
          "indexed": true,
          "internalType": "address",
          "name": "from",
          "type": "address"
        },
        {
          "indexed": true,
          "internalType": "address",
          "name": "to",
          "type": "address"
        },
        {
          "indexed": false,
          "internalType": "uint256",
          "name": "value",
          "type": "uint256"
        }
      ],
      "name": "Transfer",
      "type": "event"
    },
    {
      "inputs": [
        {
          "internalType": "address",
          "name": "owner",
          "type": "address"
        },
        {
          "internalType": "address",
          "name": "spender",
          "type": "address"
        }
      ],
      "name": "allowance",
      "outputs": [
        {
          "internalType": "uint256",
          "name": "",
          "type": "uint256"
        }
      ],
      "stateMutability": "view",
      "type": "function"
    },
    {
      "inputs": [
        {
          "internalType": "address",
          "name": "spender",
          "type": "address"
        },
        {
          "internalType": "uint256",
          "name": "amount",
          "type": "uint256"
        }
      ],
      "name": "approve",
      "outputs": [
        {
          "internalType": "bool",
          "name": "",
          "type": "bool"
        }
      ],
      "stateMutability": "nonpayable",
      "type": "function"
    },
    {
      "inputs": [
        {
          "internalType": "address",
          "name": "account",
          "type": "address"
        }
      ],
      "name": "balanceOf",
      "outputs": [
        {
          "internalType": "uint256",
          "name": "",
          "type": "uint256"
        }
      ],
      "stateMutability": "view",
      "type": "function"
    },
    {
      "inputs": [],
      "name": "decimals",
      "outputs": [
        {
          "internalType": "uint8",
          "name": "",
          "type": "uint8"
        }
      ],
      "stateMutability": "view",
      "type": "function"
    },
    {
      "inputs": [
        {
          "internalType": "address",
          "name": "spender",
          "type": "address"
        },
        {
          "internalType": "uint256",
          "name": "subtractedValue",
          "type": "uint256"
        }
      ],
      "name": "decreaseAllowance",
      "outputs": [
        {
          "internalType": "bool",
          "name": "",
          "type": "bool"
        }
      ],
      "stateMutability": "nonpayable",
      "type": "function"
    },
    {
      "inputs": [
        {
          "internalType": "address",
          "name": "spender",
          "type": "address"
        },
        {
          "internalType": "uint256",
          "name": "addedValue",
          "type": "uint256"
        }
      ],
      "name": "increaseAllowance",
      "outputs": [
        {
          "internalType": "bool",
          "name": "",
          "type": "bool"
        }
      ],
      "stateMutability": "nonpayable",
      "type": "function"
    },
    {
      "inputs": [
        {
          "internalType": "address",
          "name": "to",
          "type": "address"
        },
        {
          "internalType": "uint256",
          "name": "amount",
          "type": "uint256"
        }
      ],
      "name": "mint",
      "outputs": [
        {
          "internalType": "bool",
          "name": "",
          "type": "bool"
        }
      ],
      "stateMutability": "nonpayable",
      "type": "function"
    },
    {
      "inputs": [],
      "name": "mintableAmount",
      "outputs": [
        {
          "internalType": "uint256",
          "name": "",
          "type": "uint256"
        }
      ],
      "stateMutability": "view",
      "type": "function"
    },
    {
      "inputs": [],
      "name": "name",
      "outputs": [
        {
          "internalType": "string",
          "name": "",
          "type": "string"
        }
      ],
      "stateMutability": "view",
      "type": "function"
    },
    {
      "inputs": [],
      "name": "owner",
      "outputs": [
        {
          "internalType": "address",
          "name": "",
          "type": "address"
        }
      ],
      "stateMutability": "view",
      "type": "function"
    },
    {
      "inputs": [],
      "name": "renounceOwnership",
      "outputs": [],
      "stateMutability": "nonpayable",
      "type": "function"
    },
    {
      "inputs": [],
      "name": "symbol",
      "outputs": [
        {
          "internalType": "string",
          "name": "",
          "type": "string"
        }
      ],
      "stateMutability": "view",
      "type": "function"
    },
    {
      "inputs": [],
      "name": "totalSupply",
      "outputs": [
        {
          "internalType": "uint256",
          "name": "",
          "type": "uint256"
        }
      ],
      "stateMutability": "view",
      "type": "function"
    },
    {
      "inputs": [
        {
          "internalType": "address",
          "name": "to",
          "type": "address"
        },
        {
          "internalType": "uint256",
          "name": "amount",
          "type": "uint256"
        }
      ],
      "name": "transfer",
      "outputs": [
        {
          "internalType": "bool",
          "name": "",
          "type": "bool"
        }
      ],
      "stateMutability": "nonpayable",
      "type": "function"
    },
    {
      "inputs": [
        {
          "internalType": "address",
          "name": "from",
          "type": "address"
        },
        {
          "internalType": "address",
          "name": "to",
          "type": "address"
        },
        {
          "internalType": "uint256",
          "name": "amount",
          "type": "uint256"
        }
      ],
      "name": "transferFrom",
      "outputs": [
        {
          "internalType": "bool",
          "name": "",
          "type": "bool"
        }
      ],
      "stateMutability": "nonpayable",
      "type": "function"
    },
    {
      "inputs": [
        {
          "internalType": "address",
          "name": "newOwner",
          "type": "address"
        }
      ],
      "name": "transferOwnership",
      "outputs": [],
      "stateMutability": "nonpayable",
      "type": "function"
    }
  ],
  "bytecode": "0x6080604052620000126012600a620002cb565b600755633b9aca006008553480156200002a57600080fd5b50604080518082018252600a8152690746f6b656e45524332360b41b60208083019182528351808501909452600784526610dc9e5c1d195960ca1b9084015281519192916200007c9160039162000110565b5080516200009290600490602084019062000110565b505050620000af620000a9620000ba60201b60201c565b620000be565b60016006556200031d565b3390565b600580546001600160a01b038381166001600160a01b0319831681179093556040519116919082907f8be0079c531659141344cd1fd0a4f28419497f9722a3daafe3b4186f6b6457e090600090a35050565b8280546200011e90620002e0565b90600052602060002090601f0160209004810192826200014257600085556200018d565b82601f106200015d57805160ff19168380011785556200018d565b828001600101855582156200018d579182015b828111156200018d57825182559160200191906001019062000170565b506200019b9291506200019f565b5090565b5b808211156200019b5760008155600101620001a0565b634e487b7160e01b600052601160045260246000fd5b600181815b808511156200020d578160001904821115620001f157620001f1620001b6565b80851615620001ff57918102915b93841c9390800290620001d1565b509250929050565b6000826200022657506001620002c5565b816200023557506000620002c5565b81600181146200024e5760028114620002595762000279565b6001915050620002c5565b60ff8411156200026d576200026d620001b6565b50506001821b620002c5565b5060208310610133831016604e8410600b84101617156200029e575081810a620002c5565b620002aa8383620001cc565b8060001904821115620002c157620002c1620001b6565b0290505b92915050565b6000620002d9838362000215565b9392505050565b600181811c90821680620002f557607f821691505b602082108114156200031757634e487b7160e01b600052602260045260246000fd5b50919050565b610d34806200032d6000396000f3fe608060405234801561001057600080fd5b50600436106101005760003560e01c8063715018a611610097578063a9059cbb11610066578063a9059cbb14610209578063ae3baf4d1461021c578063dd62ed3e14610225578063f2fde38b1461023857600080fd5b8063715018a6146101c95780638da5cb5b146101d357806395d89b41146101ee578063a457c2d7146101f657600080fd5b8063313ce567116100d3578063313ce5671461016b578063395093511461017a57806340c10f191461018d57806370a08231146101a057600080fd5b806306fdde0314610105578063095ea7b31461012357806318160ddd1461014657806323b872dd14610158575b600080fd5b61010d61024b565b60405161011a9190610b05565b60405180910390f35b610136610131366004610b76565b6102dd565b604051901515815260200161011a565b6002545b60405190815260200161011a565b610136610166366004610ba0565b6102f5565b6040516012815260200161011a565b610136610188366004610b76565b610319565b61013661019b366004610b76565b61033b565b61014a6101ae366004610bdc565b6001600160a01b031660009081526020819052604090205490565b6101d1610444565b005b6005546040516001600160a01b03909116815260200161011a565b61010d61047a565b610136610204366004610b76565b610489565b610136610217366004610b76565b610504565b61014a60085481565b61014a610233366004610bf7565b610512565b6101d1610246366004610bdc565b61053d565b60606003805461025a90610c2a565b80601f016020809104026020016040519081016040528092919081815260200182805461028690610c2a565b80156102d35780601f106102a8576101008083540402835291602001916102d3565b820191906000526020600020905b8154815290600101906020018083116102b657829003601f168201915b5050505050905090565b6000336102eb8185856105d8565b5060019392505050565b6000336103038582856106fc565b61030e858585610776565b506001949350505050565b6000336102eb81858561032c8383610512565b6103369190610c7b565b6105d8565b6005546000906001600160a01b031633146103715760405162461bcd60e51b815260040161036890610c93565b60405180910390fd5b6008548211156103ce5760405162461bcd60e51b815260206004820152602260248201527f45524332303a20416d6f756e74206973206d6f7265207468616e20616c6c6f77604482015261195960f21b6064820152608401610368565b6008546103db9083610944565b6008556007546103f79084906103f2908590610957565b610963565b61043b5760405162461bcd60e51b8152602060048201526015602482015274115490cc8c0e88135a5b9d1a5b99c819985a5b1959605a1b6044820152606401610368565b50600192915050565b6005546001600160a01b0316331461046e5760405162461bcd60e51b815260040161036890610c93565b61047860006109d4565b565b60606004805461025a90610c2a565b600033816104978286610512565b9050838110156104f75760405162461bcd60e51b815260206004820152602560248201527f45524332303a2064656372656173656420616c6c6f77616e63652062656c6f77604482015264207a65726f60d81b6064820152608401610368565b61030e82868684036105d8565b6000336102eb818585610776565b6001600160a01b03918216600090815260016020908152604080832093909416825291909152205490565b6005546001600160a01b031633146105675760405162461bcd60e51b815260040161036890610c93565b6001600160a01b0381166105cc5760405162461bcd60e51b815260206004820152602660248201527f4f776e61626c653a206e6577206f776e657220697320746865207a65726f206160448201526564647265737360d01b6064820152608401610368565b6105d5816109d4565b50565b6001600160a01b03831661063a5760405162461bcd60e51b8152602060048201526024808201527f45524332303a20617070726f76652066726f6d20746865207a65726f206164646044820152637265737360e01b6064820152608401610368565b6001600160a01b03821661069b5760405162461bcd60e51b815260206004820152602260248201527f45524332303a20617070726f766520746f20746865207a65726f206164647265604482015261737360f01b6064820152608401610368565b6001600160a01b0383811660008181526001602090815260408083209487168084529482529182902085905590518481527f8c5be1e5ebec7d5bd14f71427d1e84f3dd0314c0f7b2291e5b200ac8c7c3b925910160405180910390a3505050565b60006107088484610512565b9050600019811461077057818110156107635760405162461bcd60e51b815260206004820152601d60248201527f45524332303a20696e73756666696369656e7420616c6c6f77616e63650000006044820152606401610368565b61077084848484036105d8565b50505050565b6001600160a01b0383166107da5760405162461bcd60e51b815260206004820152602560248201527f45524332303a207472616e736665722066726f6d20746865207a65726f206164604482015264647265737360d81b6064820152608401610368565b6001600160a01b03821661083c5760405162461bcd60e51b815260206004820152602360248201527f45524332303a207472616e7366657220746f20746865207a65726f206164647260448201526265737360e81b6064820152608401610368565b6001600160a01b038316600090815260208190526040902054818110156108b45760405162461bcd60e51b815260206004820152602660248201527f45524332303a207472616e7366657220616d6f756e7420657863656564732062604482015265616c616e636560d01b6064820152608401610368565b6001600160a01b038085166000908152602081905260408082208585039055918516815290812080548492906108eb908490610c7b565b92505081905550826001600160a01b0316846001600160a01b03167fddf252ad1be2c89b69c2b068fc378daa952ba7f163c4a11628f55a4df523b3ef8460405161093791815260200190565b60405180910390a3610770565b60006109508284610cc8565b9392505050565b60006109508284610cdf565b6000600260065414156109b85760405162461bcd60e51b815260206004820152601f60248201527f5265656e7472616e637947756172643a207265656e7472616e742063616c6c006044820152606401610368565b60026006556109c78383610a26565b5060018060065592915050565b600580546001600160a01b038381166001600160a01b0319831681179093556040519116919082907f8be0079c531659141344cd1fd0a4f28419497f9722a3daafe3b4186f6b6457e090600090a35050565b6001600160a01b038216610a7c5760405162461bcd60e51b815260206004820152601f60248201527f45524332303a206d696e7420746f20746865207a65726f2061646472657373006044820152606401610368565b8060026000828254610a8e9190610c7b565b90915550506001600160a01b03821660009081526020819052604081208054839290610abb908490610c7b565b90915550506040518181526001600160a01b038316906000907fddf252ad1be2c89b69c2b068fc378daa952ba7f163c4a11628f55a4df523b3ef9060200160405180910390a35050565b600060208083528351808285015260005b81811015610b3257858101830151858201604001528201610b16565b81811115610b44576000604083870101525b50601f01601f1916929092016040019392505050565b80356001600160a01b0381168114610b7157600080fd5b919050565b60008060408385031215610b8957600080fd5b610b9283610b5a565b946020939093013593505050565b600080600060608486031215610bb557600080fd5b610bbe84610b5a565b9250610bcc60208501610b5a565b9150604084013590509250925092565b600060208284031215610bee57600080fd5b61095082610b5a565b60008060408385031215610c0a57600080fd5b610c1383610b5a565b9150610c2160208401610b5a565b90509250929050565b600181811c90821680610c3e57607f821691505b60208210811415610c5f57634e487b7160e01b600052602260045260246000fd5b50919050565b634e487b7160e01b600052601160045260246000fd5b60008219821115610c8e57610c8e610c65565b500190565b6020808252818101527f4f776e61626c653a2063616c6c6572206973206e6f7420746865206f776e6572604082015260600190565b600082821015610cda57610cda610c65565b500390565b6000816000190483118215151615610cf957610cf9610c65565b50029056fea2646970667358221220d0f47080a31a7d2f705083a142f5e605da5ec0d2fd06276bc18788958a9d86cc64736f6c63430008090033",
  "linkReferences": {},
  "deployedLinkReferences": {}
}